{"abi":[{"type":"function","name":"postOp","inputs":[{"name":"mode","type":"uint8","internalType":"enum IPaymaster.PostOpMode"},{"name":"context","type":"bytes","internalType":"bytes"},{"name":"actualGasCost","type":"uint256","internalType":"uint256"}],"outputs":[],"stateMutability":"nonpayable"},{"type":"function","name":"validatePaymasterUserOp","inputs":[{"name":"userOp","type":"tuple","internalType":"struct UserOperation","components":[{"name":"sender","type":"address","internalType":"address"},{"name":"nonce","type":"uint256","internalType":"uint256"},{"name":"initCode","type":"bytes","internalType":"bytes"},{"name":"callData","type":"bytes","internalType":"bytes"},{"name":"callGasLimit","type":"uint256","internalType":"uint256"},{"name":"verificationGasLimit","type":"uint256","internalType":"uint256"},{"name":"preVerificationGas","type":"uint256","internalType":"uint256"},{"name":"maxFeePerGas","type":"uint256","internalType":"uint256"},{"name":"maxPriorityFeePerGas","type":"uint256","internalType":"uint256"},{"name":"paymasterAndData","type":"bytes","internalType":"bytes"},{"name":"signature","type":"bytes","internalType":"bytes"}]},{"name":"userOpHash","type":"bytes32","internalType":"bytes32"},{"name":"maxCost","type":"uint256","internalType":"uint256"}],"outputs":[{"name":"context","type":"bytes","internalType":"bytes"},{"name":"validationData","type":"uint256","internalType":"uint256"}],"stateMutability":"nonpayable"}],"bytecode":{"object":"0x608060405234801561001057600080fd5b506101fc806100206000396000f3fe608060405234801561001057600080fd5b50600436106100365760003560e01c8063a9a234091461003b578063f465c77e14610051575b600080fd5b61004f61004936600461008e565b50505050565b005b61007761005f36600461011d565b50506040805160008082526020820190925292909150565b604051610085929190610171565b60405180910390f35b600080600080606085870312156100a457600080fd5b8435600381106100b357600080fd5b9350602085013567ffffffffffffffff808211156100d057600080fd5b818701915087601f8301126100e457600080fd5b8135818111156100f357600080fd5b88602082850101111561010557600080fd5b95986020929092019750949560400135945092505050565b60008060006060848603121561013257600080fd5b833567ffffffffffffffff81111561014957600080fd5b8401610160818703121561015c57600080fd5b95602085013595506040909401359392505050565b604081526000835180604084015260005b8181101561019f5760208187018101516060868401015201610182565b506000606082850101526060601f19601f830116840101915050826020830152939250505056fea264697066735822122073987ee131b459fbc2aaa56bfe1a175cdf78c094907b299bd5f865032a42959664736f6c63430008170033","linkReferences":{}},"methodIdentifiers":{"postOp(uint8,bytes,uint256)":"a9a23409","validatePaymasterUserOp((address,uint256,bytes,bytes,uint256,uint256,uint256,uint256,uint256,bytes,bytes),bytes32,uint256)":"f465c77e"},"id":0}