{"abi":[{"type":"constructor","inputs":[{"name":"_owner","type":"address","internalType":"address"}],"stateMutability":"nonpayable"},{"type":"function","name":"counter","inputs":[],"outputs":[{"name":"","type":"uint256","internalType":"uint256"}],"stateMutability":"view"},{"type":"function","name":"execute","inputs":[],"outputs":[],"stateMutability":"nonpayable"},{"type":"function","name":"owner","inputs":[],"outputs":[{"name":"","type":"address","internalType":"address"}],"stateMutability":"view"},{"type":"function","name":"validateUserOp","inputs":[{"name":"userOp","type":"tuple","internalType":"struct UserOperation","components":[{"name":"sender","type":"address","internalType":"address"},{"name":"nonce","type":"uint256","internalType":"uint256"},{"name":"initCode","type":"bytes","internalType":"bytes"},{"name":"callData","type":"bytes","internalType":"bytes"},{"name":"callGasLimit","type":"uint256","internalType":"uint256"},{"name":"verificationGasLimit","type":"uint256","internalType":"uint256"},{"name":"preVerificationGas","type":"uint256","internalType":"uint256"},{"name":"maxFeePerGas","type":"uint256","internalType":"uint256"},{"name":"maxPriorityFeePerGas","type":"uint256","internalType":"uint256"},{"name":"paymasterAndData","type":"bytes","internalType":"bytes"},{"name":"signature","type":"bytes","internalType":"bytes"}]},{"name":"","type":"bytes32","internalType":"bytes32"},{"name":"","type":"uint256","internalType":"uint256"}],"outputs":[{"name":"validationData","type":"uint256","internalType":"uint256"}],"stateMutability":"view"}],"bytecode":{"object":"0x608060405234801561001057600080fd5b506040516105e03803806105e083398101604081905261002f91610054565b600180546001600160a01b0319166001600160a01b0392909216919091179055610084565b60006020828403121561006657600080fd5b81516001600160a01b038116811461007d57600080fd5b9392505050565b61054d806100936000396000f3fe608060405234801561001057600080fd5b506004361061004c5760003560e01c80633a871cdd14610051578063614619541461007757806361bc221a146100815780638da5cb5b1461008a575b600080fd5b61006461005f36600461043f565b6100b5565b6040519081526020015b60405180910390f35b61007f6101aa565b005b61006460005481565b60015461009d906001600160a01b031681565b6040516001600160a01b03909116815260200161006e565b60008061017a6101327f85cc825a98ec217d960f113f5f80a95d7fd18e3725d37df428eb14f880bdfc126040517f19457468657265756d205369676e6564204d6573736167653a0a3332000000006020820152603c8101829052600090605c01604051602081830303815290604052805190602001209050919050565b610140610140880188610493565b8080601f0160208091040260200160405190810160405280939291908181526020018383808284376000920191909152506101c092505050565b6001549091506001600160a01b039081169082160361019d5760009150506101a3565b60019150505b9392505050565b6000805490806101b9836104da565b9190505550565b60008060006101cf85856101e4565b915091506101dc81610229565b509392505050565b600080825160410361021a5760208301516040840151606085015160001a61020e8782858561037b565b94509450505050610222565b506000905060025b9250929050565b600081600481111561023d5761023d610501565b036102455750565b600181600481111561025957610259610501565b036102ab5760405162461bcd60e51b815260206004820152601860248201527f45434453413a20696e76616c6964207369676e6174757265000000000000000060448201526064015b60405180910390fd5b60028160048111156102bf576102bf610501565b0361030c5760405162461bcd60e51b815260206004820152601f60248201527f45434453413a20696e76616c6964207369676e6174757265206c656e6774680060448201526064016102a2565b600381600481111561032057610320610501565b036103785760405162461bcd60e51b815260206004820152602260248201527f45434453413a20696e76616c6964207369676e6174757265202773272076616c604482015261756560f01b60648201526084016102a2565b50565b6000807f7fffffffffffffffffffffffffffffff5d576e7357a4501ddfe92f46681b20a08311156103b25750600090506003610436565b6040805160008082526020820180845289905260ff881692820192909252606081018690526080810185905260019060a0016020604051602081039080840390855afa158015610406573d6000803e3d6000fd5b5050604051601f1901519150506001600160a01b03811661042f57600060019250925050610436565b9150600090505b94509492505050565b60008060006060848603121561045457600080fd5b833567ffffffffffffffff81111561046b57600080fd5b8401610160818703121561047e57600080fd5b95602085013595506040909401359392505050565b6000808335601e198436030181126104aa57600080fd5b83018035915067ffffffffffffffff8211156104c557600080fd5b60200191503681900382131561022257600080fd5b6000600182016104fa57634e487b7160e01b600052601160045260246000fd5b5060010190565b634e487b7160e01b600052602160045260246000fdfea264697066735822122053f22e2457ad1678f36718c9e8fcaf224176de344e4074e9ddf41c52ded0102464736f6c63430008170033","linkReferences":{}},"methodIdentifiers":{"counter()":"61bc221a","execute()":"61461954","owner()":"8da5cb5b","validateUserOp((address,uint256,bytes,bytes,uint256,uint256,uint256,uint256,uint256,bytes,bytes),bytes32,uint256)":"3a871cdd"},"id":0}