{"abi":[{"type":"function","name":"createSmartAccount","inputs":[{"name":"_owner","type":"address","internalType":"address"}],"outputs":[{"name":"","type":"address","internalType":"address"}],"stateMutability":"nonpayable"}],"bytecode":{"object":"0x608060405234801561001057600080fd5b50610329806100206000396000f3fe608060405234801561001057600080fd5b506004361061002b5760003560e01c8063c89cda6e14610030575b600080fd5b61004361003e3660046100b0565b61005f565b6040516001600160a01b03909116815260200160405180910390f35b6000808260405161006f906100a3565b6001600160a01b039091168152602001604051809103906000f08015801561009b573d6000803e3d6000fd5b509392505050565b610213806100e183390190565b6000602082840312156100c257600080fd5b81356001600160a01b03811681146100d957600080fd5b939250505056fe608060405234801561001057600080fd5b5060405161021338038061021383398101604081905261002f91610054565b600180546001600160a01b0319166001600160a01b0392909216919091179055610084565b60006020828403121561006657600080fd5b81516001600160a01b038116811461007d57600080fd5b9392505050565b610180806100936000396000f3fe608060405234801561001057600080fd5b506004361061004c5760003560e01c80633a871cdd14610051578063614619541461007b57806361bc221a146100855780638da5cb5b1461008e575b600080fd5b61006861005f3660046100cf565b60009392505050565b6040519081526020015b60405180910390f35b6100836100b9565b005b61006860005481565b6001546100a1906001600160a01b031681565b6040516001600160a01b039091168152602001610072565b6000805490806100c883610123565b9190505550565b6000806000606084860312156100e457600080fd5b833567ffffffffffffffff8111156100fb57600080fd5b8401610160818703121561010e57600080fd5b95602085013595506040909401359392505050565b60006001820161014357634e487b7160e01b600052601160045260246000fd5b506001019056fea264697066735822122077d4ce001c22d9c30e2011305dd917a76a3b9647e0f6b59051f41a8a6094e40964736f6c63430008170033a2646970667358221220d01a7706ceca0dd078f6de1c471cab778a2f44d3a2c54cdf4b133463aed8fb1564736f6c63430008170033","linkReferences":{}},"methodIdentifiers":{"createSmartAccount(address)":"c89cda6e"},"id":0}