{"abi":[{"type":"constructor","inputs":[{"name":"_owner","type":"address","internalType":"address"}],"stateMutability":"nonpayable"},{"type":"function","name":"counter","inputs":[],"outputs":[{"name":"","type":"uint256","internalType":"uint256"}],"stateMutability":"view"},{"type":"function","name":"execute","inputs":[],"outputs":[],"stateMutability":"nonpayable"},{"type":"function","name":"owner","inputs":[],"outputs":[{"name":"","type":"address","internalType":"address"}],"stateMutability":"view"},{"type":"function","name":"validateUserOp","inputs":[{"name":"","type":"tuple","internalType":"struct UserOperation","components":[{"name":"sender","type":"address","internalType":"address"},{"name":"nonce","type":"uint256","internalType":"uint256"},{"name":"initCode","type":"bytes","internalType":"bytes"},{"name":"callData","type":"bytes","internalType":"bytes"},{"name":"callGasLimit","type":"uint256","internalType":"uint256"},{"name":"verificationGasLimit","type":"uint256","internalType":"uint256"},{"name":"preVerificationGas","type":"uint256","internalType":"uint256"},{"name":"maxFeePerGas","type":"uint256","internalType":"uint256"},{"name":"maxPriorityFeePerGas","type":"uint256","internalType":"uint256"},{"name":"paymasterAndData","type":"bytes","internalType":"bytes"},{"name":"signature","type":"bytes","internalType":"bytes"}]},{"name":"","type":"bytes32","internalType":"bytes32"},{"name":"","type":"uint256","internalType":"uint256"}],"outputs":[{"name":"validationData","type":"uint256","internalType":"uint256"}],"stateMutability":"pure"}],"bytecode":{"object":"0x608060405234801561001057600080fd5b5060405161021338038061021383398101604081905261002f91610054565b600180546001600160a01b0319166001600160a01b0392909216919091179055610084565b60006020828403121561006657600080fd5b81516001600160a01b038116811461007d57600080fd5b9392505050565b610180806100936000396000f3fe608060405234801561001057600080fd5b506004361061004c5760003560e01c80633a871cdd14610051578063614619541461007b57806361bc221a146100855780638da5cb5b1461008e575b600080fd5b61006861005f3660046100cf565b60009392505050565b6040519081526020015b60405180910390f35b6100836100b9565b005b61006860005481565b6001546100a1906001600160a01b031681565b6040516001600160a01b039091168152602001610072565b6000805490806100c883610123565b9190505550565b6000806000606084860312156100e457600080fd5b833567ffffffffffffffff8111156100fb57600080fd5b8401610160818703121561010e57600080fd5b95602085013595506040909401359392505050565b60006001820161014357634e487b7160e01b600052601160045260246000fd5b506001019056fea264697066735822122071072eefce16b18c5f4f5f7b660ccf0f1b0f4030bd99afc536f6882cb169839a64736f6c63430008170033","linkReferences":{}},"methodIdentifiers":{"counter()":"61bc221a","execute()":"61461954","owner()":"8da5cb5b","validateUserOp((address,uint256,bytes,bytes,uint256,uint256,uint256,uint256,uint256,bytes,bytes),bytes32,uint256)":"3a871cdd"},"id":0}