{"abi":[{"type":"receive","stateMutability":"payable"},{"type":"function","name":"SIG_VALIDATION_FAILED","inputs":[],"outputs":[{"name":"","type":"uint256","internalType":"uint256"}],"stateMutability":"view"},{"type":"function","name":"_validateSenderAndPaymaster","inputs":[{"name":"initCode","type":"bytes","internalType":"bytes"},{"name":"sender","type":"address","internalType":"address"},{"name":"paymasterAndData","type":"bytes","internalType":"bytes"}],"outputs":[],"stateMutability":"view"},{"type":"function","name":"addStake","inputs":[{"name":"unstakeDelaySec","type":"uint32","internalType":"uint32"}],"outputs":[],"stateMutability":"payable"},{"type":"function","name":"balanceOf","inputs":[{"name":"account","type":"address","internalType":"address"}],"outputs":[{"name":"","type":"uint256","internalType":"uint256"}],"stateMutability":"view"},{"type":"function","name":"depositTo","inputs":[{"name":"account","type":"address","internalType":"address"}],"outputs":[],"stateMutability":"payable"},{"type":"function","name":"deposits","inputs":[{"name":"","type":"address","internalType":"address"}],"outputs":[{"name":"deposit","type":"uint112","internalType":"uint112"},{"name":"staked","type":"bool","internalType":"bool"},{"name":"stake","type":"uint112","internalType":"uint112"},{"name":"unstakeDelaySec","type":"uint32","internalType":"uint32"},{"name":"withdrawTime","type":"uint48","internalType":"uint48"}],"stateMutability":"view"},{"type":"function","name":"getDepositInfo","inputs":[{"name":"account","type":"address","internalType":"address"}],"outputs":[{"name":"info","type":"tuple","internalType":"struct IStakeManager.DepositInfo","components":[{"name":"deposit","type":"uint112","internalType":"uint112"},{"name":"staked","type":"bool","internalType":"bool"},{"name":"stake","type":"uint112","internalType":"uint112"},{"name":"unstakeDelaySec","type":"uint32","internalType":"uint32"},{"name":"withdrawTime","type":"uint48","internalType":"uint48"}]}],"stateMutability":"view"},{"type":"function","name":"getNonce","inputs":[{"name":"sender","type":"address","internalType":"address"},{"name":"key","type":"uint192","internalType":"uint192"}],"outputs":[{"name":"nonce","type":"uint256","internalType":"uint256"}],"stateMutability":"view"},{"type":"function","name":"getSenderAddress","inputs":[{"name":"initCode","type":"bytes","internalType":"bytes"}],"outputs":[],"stateMutability":"nonpayable"},{"type":"function","name":"getUserOpHash","inputs":[{"name":"userOp","type":"tuple","internalType":"struct UserOperation","components":[{"name":"sender","type":"address","internalType":"address"},{"name":"nonce","type":"uint256","internalType":"uint256"},{"name":"initCode","type":"bytes","internalType":"bytes"},{"name":"callData","type":"bytes","internalType":"bytes"},{"name":"callGasLimit","type":"uint256","internalType":"uint256"},{"name":"verificationGasLimit","type":"uint256","internalType":"uint256"},{"name":"preVerificationGas","type":"uint256","internalType":"uint256"},{"name":"maxFeePerGas","type":"uint256","internalType":"uint256"},{"name":"maxPriorityFeePerGas","type":"uint256","internalType":"uint256"},{"name":"paymasterAndData","type":"bytes","internalType":"bytes"},{"name":"signature","type":"bytes","internalType":"bytes"}]}],"outputs":[{"name":"","type":"bytes32","internalType":"bytes32"}],"stateMutability":"view"},{"type":"function","name":"handleAggregatedOps","inputs":[{"name":"opsPerAggregator","type":"tuple[]","internalType":"struct IEntryPoint.UserOpsPerAggregator[]","components":[{"name":"userOps","type":"tuple[]","internalType":"struct UserOperation[]","components":[{"name":"sender","type":"address","internalType":"address"},{"name":"nonce","type":"uint256","internalType":"uint256"},{"name":"initCode","type":"bytes","internalType":"bytes"},{"name":"callData","type":"bytes","internalType":"bytes"},{"name":"callGasLimit","type":"uint256","internalType":"uint256"},{"name":"verificationGasLimit","type":"uint256","internalType":"uint256"},{"name":"preVerificationGas","type":"uint256","internalType":"uint256"},{"name":"maxFeePerGas","type":"uint256","internalType":"uint256"},{"name":"maxPriorityFeePerGas","type":"uint256","internalType":"uint256"},{"name":"paymasterAndData","type":"bytes","internalType":"bytes"},{"name":"signature","type":"bytes","internalType":"bytes"}]},{"name":"aggregator","type":"address","internalType":"contract IAggregator"},{"name":"signature","type":"bytes","internalType":"bytes"}]},{"name":"beneficiary","type":"address","internalType":"address payable"}],"outputs":[],"stateMutability":"nonpayable"},{"type":"function","name":"handleOps","inputs":[{"name":"ops","type":"tuple[]","internalType":"struct UserOperation[]","components":[{"name":"sender","type":"address","internalType":"address"},{"name":"nonce","type":"uint256","internalType":"uint256"},{"name":"initCode","type":"bytes","internalType":"bytes"},{"name":"callData","type":"bytes","internalType":"bytes"},{"name":"callGasLimit","type":"uint256","internalType":"uint256"},{"name":"verificationGasLimit","type":"uint256","internalType":"uint256"},{"name":"preVerificationGas","type":"uint256","internalType":"uint256"},{"name":"maxFeePerGas","type":"uint256","internalType":"uint256"},{"name":"maxPriorityFeePerGas","type":"uint256","internalType":"uint256"},{"name":"paymasterAndData","type":"bytes","internalType":"bytes"},{"name":"signature","type":"bytes","internalType":"bytes"}]},{"name":"beneficiary","type":"address","internalType":"address payable"}],"outputs":[],"stateMutability":"nonpayable"},{"type":"function","name":"incrementNonce","inputs":[{"name":"key","type":"uint192","internalType":"uint192"}],"outputs":[],"stateMutability":"nonpayable"},{"type":"function","name":"innerHandleOp","inputs":[{"name":"callData","type":"bytes","internalType":"bytes"},{"name":"opInfo","type":"tuple","internalType":"struct EntryPoint.UserOpInfo","components":[{"name":"mUserOp","type":"tuple","internalType":"struct EntryPoint.MemoryUserOp","components":[{"name":"sender","type":"address","internalType":"address"},{"name":"nonce","type":"uint256","internalType":"uint256"},{"name":"callGasLimit","type":"uint256","internalType":"uint256"},{"name":"verificationGasLimit","type":"uint256","internalType":"uint256"},{"name":"preVerificationGas","type":"uint256","internalType":"uint256"},{"name":"paymaster","type":"address","internalType":"address"},{"name":"maxFeePerGas","type":"uint256","internalType":"uint256"},{"name":"maxPriorityFeePerGas","type":"uint256","internalType":"uint256"}]},{"name":"userOpHash","type":"bytes32","internalType":"bytes32"},{"name":"prefund","type":"uint256","internalType":"uint256"},{"name":"contextOffset","type":"uint256","internalType":"uint256"},{"name":"preOpGas","type":"uint256","internalType":"uint256"}]},{"name":"context","type":"bytes","internalType":"bytes"}],"outputs":[{"name":"actualGasCost","type":"uint256","internalType":"uint256"}],"stateMutability":"nonpayable"},{"type":"function","name":"nonceSequenceNumber","inputs":[{"name":"","type":"address","internalType":"address"},{"name":"","type":"uint192","internalType":"uint192"}],"outputs":[{"name":"","type":"uint256","internalType":"uint256"}],"stateMutability":"view"},{"type":"function","name":"simulateHandleOp","inputs":[{"name":"op","type":"tuple","internalType":"struct UserOperation","components":[{"name":"sender","type":"address","internalType":"address"},{"name":"nonce","type":"uint256","internalType":"uint256"},{"name":"initCode","type":"bytes","internalType":"bytes"},{"name":"callData","type":"bytes","internalType":"bytes"},{"name":"callGasLimit","type":"uint256","internalType":"uint256"},{"name":"verificationGasLimit","type":"uint256","internalType":"uint256"},{"name":"preVerificationGas","type":"uint256","internalType":"uint256"},{"name":"maxFeePerGas","type":"uint256","internalType":"uint256"},{"name":"maxPriorityFeePerGas","type":"uint256","internalType":"uint256"},{"name":"paymasterAndData","type":"bytes","internalType":"bytes"},{"name":"signature","type":"bytes","internalType":"bytes"}]},{"name":"target","type":"address","internalType":"address"},{"name":"targetCallData","type":"bytes","internalType":"bytes"}],"outputs":[],"stateMutability":"nonpayable"},{"type":"function","name":"simulateValidation","inputs":[{"name":"userOp","type":"tuple","internalType":"struct UserOperation","components":[{"name":"sender","type":"address","internalType":"address"},{"name":"nonce","type":"uint256","internalType":"uint256"},{"name":"initCode","type":"bytes","internalType":"bytes"},{"name":"callData","type":"bytes","internalType":"bytes"},{"name":"callGasLimit","type":"uint256","internalType":"uint256"},{"name":"verificationGasLimit","type":"uint256","internalType":"uint256"},{"name":"preVerificationGas","type":"uint256","internalType":"uint256"},{"name":"maxFeePerGas","type":"uint256","internalType":"uint256"},{"name":"maxPriorityFeePerGas","type":"uint256","internalType":"uint256"},{"name":"paymasterAndData","type":"bytes","internalType":"bytes"},{"name":"signature","type":"bytes","internalType":"bytes"}]}],"outputs":[],"stateMutability":"nonpayable"},{"type":"function","name":"unlockStake","inputs":[],"outputs":[],"stateMutability":"nonpayable"},{"type":"function","name":"withdrawStake","inputs":[{"name":"withdrawAddress","type":"address","internalType":"address payable"}],"outputs":[],"stateMutability":"nonpayable"},{"type":"function","name":"withdrawTo","inputs":[{"name":"withdrawAddress","type":"address","internalType":"address payable"},{"name":"withdrawAmount","type":"uint256","internalType":"uint256"}],"outputs":[],"stateMutability":"nonpayable"},{"type":"event","name":"AccountDeployed","inputs":[{"name":"userOpHash","type":"bytes32","indexed":true,"internalType":"bytes32"},{"name":"sender","type":"address","indexed":true,"internalType":"address"},{"name":"factory","type":"address","indexed":false,"internalType":"address"},{"name":"paymaster","type":"address","indexed":false,"internalType":"address"}],"anonymous":false},{"type":"event","name":"BeforeExecution","inputs":[],"anonymous":false},{"type":"event","name":"Deposited","inputs":[{"name":"account","type":"address","indexed":true,"internalType":"address"},{"name":"totalDeposit","type":"uint256","indexed":false,"internalType":"uint256"}],"anonymous":false},{"type":"event","name":"SignatureAggregatorChanged","inputs":[{"name":"aggregator","type":"address","indexed":true,"internalType":"address"}],"anonymous":false},{"type":"event","name":"StakeLocked","inputs":[{"name":"account","type":"address","indexed":true,"internalType":"address"},{"name":"totalStaked","type":"uint256","indexed":false,"internalType":"uint256"},{"name":"unstakeDelaySec","type":"uint256","indexed":false,"internalType":"uint256"}],"anonymous":false},{"type":"event","name":"StakeUnlocked","inputs":[{"name":"account","type":"address","indexed":true,"internalType":"address"},{"name":"withdrawTime","type":"uint256","indexed":false,"internalType":"uint256"}],"anonymous":false},{"type":"event","name":"StakeWithdrawn","inputs":[{"name":"account","type":"address","indexed":true,"internalType":"address"},{"name":"withdrawAddress","type":"address","indexed":false,"internalType":"address"},{"name":"amount","type":"uint256","indexed":false,"internalType":"uint256"}],"anonymous":false},{"type":"event","name":"UserOperationEvent","inputs":[{"name":"userOpHash","type":"bytes32","indexed":true,"internalType":"bytes32"},{"name":"sender","type":"address","indexed":true,"internalType":"address"},{"name":"paymaster","type":"address","indexed":true,"internalType":"address"},{"name":"nonce","type":"uint256","indexed":false,"internalType":"uint256"},{"name":"success","type":"bool","indexed":false,"internalType":"bool"},{"name":"actualGasCost","type":"uint256","indexed":false,"internalType":"uint256"},{"name":"actualGasUsed","type":"uint256","indexed":false,"internalType":"uint256"}],"anonymous":false},{"type":"event","name":"UserOperationRevertReason","inputs":[{"name":"userOpHash","type":"bytes32","indexed":true,"internalType":"bytes32"},{"name":"sender","type":"address","indexed":true,"internalType":"address"},{"name":"nonce","type":"uint256","indexed":false,"internalType":"uint256"},{"name":"revertReason","type":"bytes","indexed":false,"internalType":"bytes"}],"anonymous":false},{"type":"event","name":"Withdrawn","inputs":[{"name":"account","type":"address","indexed":true,"internalType":"address"},{"name":"withdrawAddress","type":"address","indexed":false,"internalType":"address"},{"name":"amount","type":"uint256","indexed":false,"internalType":"uint256"}],"anonymous":false},{"type":"error","name":"ExecutionResult","inputs":[{"name":"preOpGas","type":"uint256","internalType":"uint256"},{"name":"paid","type":"uint256","internalType":"uint256"},{"name":"validAfter","type":"uint48","internalType":"uint48"},{"name":"validUntil","type":"uint48","internalType":"uint48"},{"name":"targetSuccess","type":"bool","internalType":"bool"},{"name":"targetResult","type":"bytes","internalType":"bytes"}]},{"type":"error","name":"FailedOp","inputs":[{"name":"opIndex","type":"uint256","internalType":"uint256"},{"name":"reason","type":"string","internalType":"string"}]},{"type":"error","name":"SenderAddressResult","inputs":[{"name":"sender","type":"address","internalType":"address"}]},{"type":"error","name":"SignatureValidationFailed","inputs":[{"name":"aggregator","type":"address","internalType":"address"}]},{"type":"error","name":"ValidationResult","inputs":[{"name":"returnInfo","type":"tuple","internalType":"struct IEntryPoint.ReturnInfo","components":[{"name":"preOpGas","type":"uint256","internalType":"uint256"},{"name":"prefund","type":"uint256","internalType":"uint256"},{"name":"sigFailed","type":"bool","internalType":"bool"},{"name":"validAfter","type":"uint48","internalType":"uint48"},{"name":"validUntil","type":"uint48","internalType":"uint48"},{"name":"paymasterContext","type":"bytes","internalType":"bytes"}]},{"name":"senderInfo","type":"tuple","internalType":"struct IStakeManager.StakeInfo","components":[{"name":"stake","type":"uint256","internalType":"uint256"},{"name":"unstakeDelaySec","type":"uint256","internalType":"uint256"}]},{"name":"factoryInfo","type":"tuple","internalType":"struct IStakeManager.StakeInfo","components":[{"name":"stake","type":"uint256","internalType":"uint256"},{"name":"unstakeDelaySec","type":"uint256","internalType":"uint256"}]},{"name":"paymasterInfo","type":"tuple","internalType":"struct IStakeManager.StakeInfo","components":[{"name":"stake","type":"uint256","internalType":"uint256"},{"name":"unstakeDelaySec","type":"uint256","internalType":"uint256"}]}]},{"type":"error","name":"ValidationResultWithAggregation","inputs":[{"name":"returnInfo","type":"tuple","internalType":"struct IEntryPoint.ReturnInfo","components":[{"name":"preOpGas","type":"uint256","internalType":"uint256"},{"name":"prefund","type":"uint256","internalType":"uint256"},{"name":"sigFailed","type":"bool","internalType":"bool"},{"name":"validAfter","type":"uint48","internalType":"uint48"},{"name":"validUntil","type":"uint48","internalType":"uint48"},{"name":"paymasterContext","type":"bytes","internalType":"bytes"}]},{"name":"senderInfo","type":"tuple","internalType":"struct IStakeManager.StakeInfo","components":[{"name":"stake","type":"uint256","internalType":"uint256"},{"name":"unstakeDelaySec","type":"uint256","internalType":"uint256"}]},{"name":"factoryInfo","type":"tuple","internalType":"struct IStakeManager.StakeInfo","components":[{"name":"stake","type":"uint256","internalType":"uint256"},{"name":"unstakeDelaySec","type":"uint256","internalType":"uint256"}]},{"name":"paymasterInfo","type":"tuple","internalType":"struct IStakeManager.StakeInfo","components":[{"name":"stake","type":"uint256","internalType":"uint256"},{"name":"unstakeDelaySec","type":"uint256","internalType":"uint256"}]},{"name":"aggregatorInfo","type":"tuple","internalType":"struct IEntryPoint.AggregatorStakeInfo","components":[{"name":"aggregator","type":"address","internalType":"address"},{"name":"stakeInfo","type":"tuple","internalType":"struct IStakeManager.StakeInfo","components":[{"name":"stake","type":"uint256","internalType":"uint256"},{"name":"unstakeDelaySec","type":"uint256","internalType":"uint256"}]}]}]}],"bytecode":{"object":"0x60a0604052604051620000129062000055565b604051809103906000f0801580156200002f573d6000803e3d6000fd5b506001600160a01b03166080523480156200004957600080fd5b50600160025562000063565b6102138062003ffa83390190565b608051613f7462000086600039600081816112750152612dcb0152613f746000f3fe6080604052600436106101235760003560e01c80638f41ec5a116100a0578063bb9fe6bf11610064578063bb9fe6bf1461043a578063c23a5cea1461044f578063d6383f941461046f578063ee2194231461048f578063fc7e286d146104af57600080fd5b80638f41ec5a146103b2578063957122ab146103c75780639b249f69146103e7578063a619353114610407578063b760faf91461042757600080fd5b8063205c2878116100e7578063205c2878146101f657806335567e1a146102165780634b1d7cf5146102365780635287ce121461025657806370a082311461037357600080fd5b80630396cb60146101385780630bd28e3b1461014b5780631b2e01b81461016b5780631d732756146101b65780631fad948c146101d657600080fd5b366101335761013133610564565b005b600080fd5b61013161014636600461309e565b6105cb565b34801561015757600080fd5b506101316101663660046130e0565b61085a565b34801561017757600080fd5b506101a361018636600461311b565b600160209081526000928352604080842090915290825290205481565b6040519081526020015b60405180910390f35b3480156101c257600080fd5b506101a36101d1366004613315565b610891565b3480156101e257600080fd5b506101316101f136600461341e565b610a04565b34801561020257600080fd5b50610131610211366004613474565b610b80565b34801561022257600080fd5b506101a361023136600461311b565b610cfc565b34801561024257600080fd5b5061013161025136600461341e565b610d42565b34801561026257600080fd5b5061031b6102713660046134a0565b6040805160a081018252600080825260208201819052918101829052606081018290526080810191909152506001600160a01b031660009081526020818152604091829020825160a08101845281546001600160701b038082168352600160701b820460ff16151594830194909452600160781b90049092169282019290925260019091015463ffffffff81166060830152640100000000900465ffffffffffff16608082015290565b6040805182516001600160701b03908116825260208085015115159083015283830151169181019190915260608083015163ffffffff169082015260809182015165ffffffffffff169181019190915260a0016101ad565b34801561037f57600080fd5b506101a361038e3660046134a0565b6001600160a01b03166000908152602081905260409020546001600160701b031690565b3480156103be57600080fd5b506101a3600181565b3480156103d357600080fd5b506101316103e23660046134bd565b61115e565b3480156103f357600080fd5b50610131610402366004613541565b61125b565b34801561041357600080fd5b506101a361042236600461359b565b611316565b6101316104353660046134a0565b610564565b34801561044657600080fd5b50610131611358565b34801561045b57600080fd5b5061013161046a3660046134a0565b611481565b34801561047b57600080fd5b5061013161048a3660046135cf565b6116b9565b34801561049b57600080fd5b506101316104aa36600461359b565b6117b4565b3480156104bb57600080fd5b5061051e6104ca3660046134a0565b600060208190529081526040902080546001909101546001600160701b0380831692600160701b810460ff1692600160781b9091049091169063ffffffff811690640100000000900465ffffffffffff1685565b604080516001600160701b0396871681529415156020860152929094169183019190915263ffffffff16606082015265ffffffffffff909116608082015260a0016101ad565b61056e8134611990565b6001600160a01b03811660008181526020818152604091829020805492516001600160701b03909316835292917f2da466a7b24304f47e87fa2e1e5a81b9831ce54fec19055ce277ca2f39ba42c491015b60405180910390a25050565b33600090815260208190526040902063ffffffff82166106325760405162461bcd60e51b815260206004820152601a60248201527f6d757374207370656369667920756e7374616b652064656c617900000000000060448201526064015b60405180910390fd5b600181015463ffffffff90811690831610156106905760405162461bcd60e51b815260206004820152601c60248201527f63616e6e6f7420646563726561736520756e7374616b652074696d65000000006044820152606401610629565b80546000906106b0903490600160781b90046001600160701b0316613646565b9050600081116106f75760405162461bcd60e51b81526020600482015260126024820152711b9bc81cdd185ad9481cdc1958da599a595960721b6044820152606401610629565b6001600160701b0381111561073f5760405162461bcd60e51b815260206004820152600e60248201526d7374616b65206f766572666c6f7760901b6044820152606401610629565b6040805160a08101825283546001600160701b0390811682526001602080840182815286841685870190815263ffffffff808b16606088019081526000608089018181523380835296829052908a902098518954955194518916600160781b02600160781b600160e81b0319951515600160701b026effffffffffffffffffffffffffffff199097169190991617949094179290921695909517865551949092018054925165ffffffffffff166401000000000269ffffffffffffffffffff19909316949093169390931717905590517fa5ae833d0bb1dcd632d98a8b70973e8516812898e19bf27b70071ebc8dc52c019061084d908490879091825263ffffffff16602082015260400190565b60405180910390a2505050565b3360009081526001602090815260408083206001600160c01b0385168452909152812080549161088983613659565b919050555050565b6000805a90503330146108e65760405162461bcd60e51b815260206004820152601760248201527f4141393220696e7465726e616c2063616c6c206f6e6c790000000000000000006044820152606401610629565b8451604081015160608201518101611388015a10156109105763deaddead60e01b60005260206000fd5b8751600090156109a457600061092d846000015160008c86611a2c565b9050806109a2576000610941610800611a44565b80519091501561099c5784600001516001600160a01b03168a602001517f1c4fada7374c0a9ee8841fc38afe82932dc0f8e69012e927f061a8bae611a2018760200151846040516109939291906136c2565b60405180910390a35b60019250505b505b600088608001515a86030190506109f66000838b8b8b8080601f016020809104026020016040519081016040528093929190818152602001838380828437600092019190915250889250611a70915050565b9a9950505050505050505050565b610a0c611d67565b816000816001600160401b03811115610a2757610a27613150565b604051908082528060200260200182016040528015610a6057816020015b610a4d613014565b815260200190600190039081610a455790505b50905060005b82811015610ad9576000828281518110610a8257610a826136db565b60200260200101519050600080610abd848a8a87818110610aa557610aa56136db565b9050602002810190610ab791906136f1565b85611dbe565b91509150610ace8483836000611fa9565b505050600101610a66565b506040516000907fbb47ee3e183a558b1a2ff0874b079f3fc5478b7454eacf2bfc5af2ff5878f972908290a160005b83811015610b6357610b5781888884818110610b2657610b266136db565b9050602002810190610b3891906136f1565b858481518110610b4a57610b4a6136db565b6020026020010151612145565b90910190600101610b08565b50610b6e848261226c565b505050610b7b6001600255565b505050565b33600090815260208190526040902080546001600160701b0316821115610be95760405162461bcd60e51b815260206004820152601960248201527f576974686472617720616d6f756e7420746f6f206c61726765000000000000006044820152606401610629565b8054610bff9083906001600160701b0316613712565b81546001600160701b0319166001600160701b0391909116178155604080516001600160a01b03851681526020810184905233917fd1c19fbcd4551a5edfb66d43d2e337c04837afda3482b42bdf569a8fccdae5fb910160405180910390a26000836001600160a01b03168360405160006040518083038185875af1925050503d8060008114610cab576040519150601f19603f3d011682016040523d82523d6000602084013e610cb0565b606091505b5050905080610cf65760405162461bcd60e51b81526020600482015260126024820152716661696c656420746f20776974686472617760701b6044820152606401610629565b50505050565b6001600160a01b03821660009081526001602090815260408083206001600160c01b038516845290915290819020549082901b67ffffffffffffffff1916175b92915050565b610d4a611d67565b816000805b82811015610eb75736868683818110610d6a57610d6a6136db565b9050602002810190610d7c9190613725565b9050366000610d8b838061373b565b90925090506000610da260408501602086016134a0565b90506000196001600160a01b03821601610dfe5760405162461bcd60e51b815260206004820152601760248201527f4141393620696e76616c69642061676772656761746f720000000000000000006044820152606401610629565b6001600160a01b03811615610e9b576001600160a01b03811663e3563a4f8484610e2b6040890189613784565b6040518563ffffffff1660e01b8152600401610e4a949392919061392f565b60006040518083038186803b158015610e6257600080fd5b505afa925050508015610e73575060015b610e9b5760405163086a9f7560e41b81526001600160a01b0382166004820152602401610629565b610ea58287613646565b95505060019093019250610d4f915050565b506000816001600160401b03811115610ed257610ed2613150565b604051908082528060200260200182016040528015610f0b57816020015b610ef8613014565b815260200190600190039081610ef05790505b506040519091507fbb47ee3e183a558b1a2ff0874b079f3fc5478b7454eacf2bfc5af2ff5878f97290600090a16000805b848110156110125736888883818110610f5757610f576136db565b9050602002810190610f699190613725565b9050366000610f78838061373b565b90925090506000610f8f60408501602086016134a0565b90508160005b81811015611000576000898981518110610fb157610fb16136db565b60200260200101519050600080610fd48b898987818110610aa557610aa56136db565b91509150610fe484838389611fa9565b8a610fee81613659565b9b505060019093019250610f95915050565b505060019094019350610f3c92505050565b50600080915060005b858110156111195736898983818110611036576110366136db565b90506020028101906110489190613725565b905061105a60408201602083016134a0565b6001600160a01b03167f575ff3acadd5ab348fe1855e217e0f3678f8d767d7494c9f9fefbee2e17cca4d60405160405180910390a236600061109c838061373b565b90925090508060005b81811015611108576110e7888585848181106110c3576110c36136db565b90506020028101906110d591906136f1565b8b8b81518110610b4a57610b4a6136db565b6110f19088613646565b9650876110fd81613659565b9850506001016110a5565b50506001909301925061101b915050565b506040516000907f575ff3acadd5ab348fe1855e217e0f3678f8d767d7494c9f9fefbee2e17cca4d908290a261114f868261226c565b5050505050610b7b6001600255565b8315801561117457506001600160a01b0383163b155b156111c15760405162461bcd60e51b815260206004820152601960248201527f41413230206163636f756e74206e6f74206465706c6f796564000000000000006044820152606401610629565b601481106112395760006111d860148284866139ac565b6111e1916139d6565b60601c9050803b6000036112375760405162461bcd60e51b815260206004820152601b60248201527f41413330207061796d6173746572206e6f74206465706c6f79656400000000006044820152606401610629565b505b60405162461bcd60e51b81526020600482015260006024820152604401610629565b604051632b870d1b60e11b81526000906001600160a01b037f0000000000000000000000000000000000000000000000000000000000000000169063570e1a36906112ac9086908690600401613a0b565b6020604051808303816000875af11580156112cb573d6000803e3d6000fd5b505050506040513d601f19601f820116820180604052508101906112ef9190613a1f565b604051633653dc0360e11b81526001600160a01b0382166004820152909150602401610629565b600061132182612365565b6040805160208101929092523090820152466060820152608001604051602081830303815290604052805190602001209050919050565b3360009081526020819052604081206001810154909163ffffffff90911690036113b15760405162461bcd60e51b815260206004820152600a6024820152691b9bdd081cdd185ad95960b21b6044820152606401610629565b8054600160701b900460ff166113fd5760405162461bcd60e51b8152602060048201526011602482015270616c726561647920756e7374616b696e6760781b6044820152606401610629565b60018101546000906114159063ffffffff1642613a3c565b60018301805469ffffffffffff00000000191664010000000065ffffffffffff841690810291909117909155835460ff60701b1916845560405190815290915033907ffa9b3c14cc825c412c9ed81b3ba365a5b459439403f18829e572ed53a4180f0a906020016105bf565b3360009081526020819052604090208054600160781b90046001600160701b0316806114e65760405162461bcd60e51b81526020600482015260146024820152734e6f207374616b6520746f20776974686472617760601b6044820152606401610629565b6001820154640100000000900465ffffffffffff166115475760405162461bcd60e51b815260206004820152601d60248201527f6d7573742063616c6c20756e6c6f636b5374616b6528292066697273740000006044820152606401610629565b60018201544264010000000090910465ffffffffffff1611156115ac5760405162461bcd60e51b815260206004820152601b60248201527f5374616b65207769746864726177616c206973206e6f742064756500000000006044820152606401610629565b60018201805469ffffffffffffffffffff191690558154600160781b600160e81b0319168255604080516001600160a01b03851681526020810183905233917fb7c918e0e249f999e965cafeb6c664271b3f4317d296461500e71da39f0cbda3910160405180910390a26000836001600160a01b03168260405160006040518083038185875af1925050503d8060008114611663576040519150601f19603f3d011682016040523d82523d6000602084013e611668565b606091505b5050905080610cf65760405162461bcd60e51b815260206004820152601860248201527f6661696c656420746f207769746864726177207374616b6500000000000000006044820152606401610629565b6116c1613014565b6116ca8561237e565b6000806116d960008885611dbe565b9150915060006116e98383612458565b90506116f443600052565b600061170260008a87612145565b905061170d43600052565b600060606001600160a01b038a161561178357896001600160a01b0316898960405161173a929190613a62565b6000604051808303816000865af19150503d8060008114611777576040519150601f19603f3d011682016040523d82523d6000602084013e61177c565b606091505b5090925090505b866080015183856020015186604001518585604051630116f59360e71b815260040161062996959493929190613a72565b6117bc613014565b6117c58261237e565b6000806117d460008585611dbe565b9150915060006117eb846000015160a00151612524565b8451519091506000906117fd90612524565b905061181c604051806040016040528060008152602001600081525090565b36600061182c60408a018a613784565b90925090506000601482101561184357600061185e565b6118516014600084866139ac565b61185a916139d6565b60601c5b905061186981612524565b9350505050600061187a8686612458565b9050600081600001519050600060016001600160a01b0316826001600160a01b031614905060006040518060c001604052808b6080015181526020018b6040015181526020018315158152602001856020015165ffffffffffff168152602001856040015165ffffffffffff1681526020016118f78c6060015190565b905290506001600160a01b0383161580159061191d57506001600160a01b038316600114155b1561196f5760006040518060400160405280856001600160a01b0316815260200161194786612524565b81525090508187878a84604051633ebb2d3960e21b8152600401610629959493929190613b14565b8086868960405163e0cff05f60e01b81526004016106299493929190613b94565b6001600160a01b038216600090815260208190526040812080549091906119c19084906001600160701b0316613646565b90506001600160701b03811115611a0d5760405162461bcd60e51b815260206004820152601060248201526f6465706f736974206f766572666c6f7760801b6044820152606401610629565b81546001600160701b0319166001600160701b03919091161790555050565b6000806000845160208601878987f195945050505050565b60603d82811115611a525750815b604051602082018101604052818152816000602083013e9392505050565b6000805a855190915060009081611a8682612573565b60a08301519091506001600160a01b038116611aa55782519350611c4c565b809350600088511115611c4c57868202955060028a6002811115611acb57611acb613beb565b14611b3d57606083015160405163a9a2340960e01b81526001600160a01b0383169163a9a2340991611b05908e908d908c90600401613c01565b600060405180830381600088803b158015611b1f57600080fd5b5087f1158015611b33573d6000803e3d6000fd5b5050505050611c4c565b606083015160405163a9a2340960e01b81526001600160a01b0383169163a9a2340991611b72908e908d908c90600401613c01565b600060405180830381600088803b158015611b8c57600080fd5b5087f193505050508015611b9e575060015b611c4c57611baa613c48565b806308c379a003611c035750611bbe613c64565b80611bc95750611c05565b8b81604051602001611bdb9190613ced565b60408051601f1981840301815290829052631101335b60e11b825261062992916004016136c2565b505b8a604051631101335b60e11b81526004016106299181526040602082018190526012908201527110504d4c081c1bdcdd13dc081c995d995c9d60721b606082015260800190565b5a85038701965081870295508589604001511015611cb5578a604051631101335b60e11b815260040161062991815260406020808301829052908201527f414135312070726566756e642062656c6f772061637475616c476173436f7374606082015260800190565b6040890151869003611cc78582611990565b6000808c6002811115611cdc57611cdc613beb565b1490508460a001516001600160a01b031685600001516001600160a01b03168c602001517f49628fd1471006c1482da88028e9ce4dbb080b815c9b0344d39e5a8e6ec1419f8860200151858d8f604051611d4f949392919093845291151560208401526040830152606082015260800190565b60405180910390a45050505050505095945050505050565b6002805403611db85760405162461bcd60e51b815260206004820152601f60248201527f5265656e7472616e637947756172643a207265656e7472616e742063616c6c006044820152606401610629565b60028055565b60008060005a8451909150611dd386826125a3565b611ddc86611316565b6020860152604081015160608201516080830151171760e087013517610100870135176effffffffffffffffffffffffffffff811115611e5e5760405162461bcd60e51b815260206004820152601860248201527f41413934206761732076616c756573206f766572666c6f7700000000000000006044820152606401610629565b600080611e6a8461269c565b9050611e788a8a8a846126e9565b85516020870151919950919350611e8f9190612921565b611ee55789604051631101335b60e11b8152600401610629918152604060208201819052601a908201527f4141323520696e76616c6964206163636f756e74206e6f6e6365000000000000606082015260800190565b611eee43600052565b60a08401516060906001600160a01b031615611f1657611f118b8b8b858761296e565b975090505b60005a87039050808b60a001351015611f7b578b604051631101335b60e11b8152600401610629918152604060208201819052601e908201527f41413430206f76657220766572696669636174696f6e4761734c696d69740000606082015260800190565b60408a018390528160608b015260c08b01355a8803018a608001818152505050505050505050935093915050565b600080611fb585612b91565b91509150816001600160a01b0316836001600160a01b03161461201b5785604051631101335b60e11b81526004016106299181526040602082018190526014908201527320a0991a1039b4b3b730ba3ab9329032b93937b960611b606082015260800190565b80156120735785604051631101335b60e11b81526004016106299181526040602082018190526017908201527f414132322065787069726564206f72206e6f7420647565000000000000000000606082015260800190565b600061207e85612b91565b925090506001600160a01b038116156120da5786604051631101335b60e11b81526004016106299181526040602082018190526014908201527320a0999a1039b4b3b730ba3ab9329032b93937b960611b606082015260800190565b811561213c5786604051631101335b60e11b81526004016106299181526040602082018190526021908201527f41413332207061796d61737465722065787069726564206f72206e6f742064756060820152606560f81b608082015260a00190565b50505050505050565b6000805a90506000612158846060015190565b905030631d73275661216d6060880188613784565b87856040518563ffffffff1660e01b815260040161218e9493929190613d2b565b6020604051808303816000875af19250505080156121c9575060408051601f3d908101601f191682019092526121c691810190613dde565b60015b61226057600060206000803e50600051632152215360e01b810161222b5786604051631101335b60e11b8152600401610629918152604060208201819052600f908201526e41413935206f7574206f662067617360881b606082015260800190565b600085608001515a61223d9086613712565b6122479190613646565b9050612257886002888685611a70565b94505050612263565b92505b50509392505050565b6001600160a01b0382166122c25760405162461bcd60e51b815260206004820152601860248201527f4141393020696e76616c69642062656e656669636961727900000000000000006044820152606401610629565b6000826001600160a01b03168260405160006040518083038185875af1925050503d806000811461230f576040519150601f19603f3d011682016040523d82523d6000602084013e612314565b606091505b5050905080610b7b5760405162461bcd60e51b815260206004820152601f60248201527f41413931206661696c65642073656e6420746f2062656e6566696369617279006044820152606401610629565b600061237082612be4565b805190602001209050919050565b3063957122ab6123916040840184613784565b61239e60208601866134a0565b6123ac610120870187613784565b6040518663ffffffff1660e01b81526004016123cc959493929190613df7565b60006040518083038186803b1580156123e457600080fd5b505afa9250505080156123f5575060015b61245557612401613c48565b806308c379a0036124495750612415613c64565b80612420575061244b565b80511561244557600081604051631101335b60e11b81526004016106299291906136c2565b5050565b505b3d6000803e3d6000fd5b50565b604080516060810182526000808252602082018190529181018290529061247e84612cb7565b9050600061248b84612cb7565b82519091506001600160a01b0381166124a2575080515b602080840151604080860151928501519085015191929165ffffffffffff80831690851610156124d0578193505b8065ffffffffffff168365ffffffffffff1611156124ec578092505b5050604080516060810182526001600160a01b03909416845265ffffffffffff92831660208501529116908201529250505092915050565b604080518082018252600080825260208083018281526001600160a01b03959095168252819052919091208054600160781b90046001600160701b031682526001015463ffffffff1690915290565b60c081015160e08201516000919080820361258f575092915050565b61259b82488301612d28565b949350505050565b6125b060208301836134a0565b6001600160a01b0316815260208083013590820152608080830135604083015260a0830135606083015260c0808401359183019190915260e080840135918301919091526101008301359082015236600061260f610120850185613784565b9092509050801561268f57601481101561266b5760405162461bcd60e51b815260206004820152601d60248201527f4141393320696e76616c6964207061796d6173746572416e64446174610000006044820152606401610629565b6126796014600083856139ac565b612682916139d6565b60601c60a0840152610cf6565b600060a084015250505050565b60a081015160009081906001600160a01b03166126ba5760016126bd565b60035b60ff16905060008360800151828560600151028560400151010190508360c00151810292505050919050565b60008060005a855180519192509061270e898861270960408c018c613784565b612d40565b60a082015161271c43600052565b60006001600160a01b038216612764576001600160a01b0383166000908152602081905260409020546001600160701b031688811161275d57808903612760565b60005b9150505b606084015160208a0151604051633a871cdd60e01b81526001600160a01b03861692633a871cdd92909161279e918f918790600401613e2d565b60206040518083038160008887f1935050505080156127da575060408051601f3d908101601f191682019092526127d791810190613dde565b60015b612864576127e6613c48565b806308c379a00361281757506127fa613c64565b806128055750612819565b8b81604051602001611bdb9190613e52565b505b8a604051631101335b60e11b8152600401610629918152604060208201819052601690820152754141323320726576657274656420286f72204f4f472960501b606082015260800190565b95506001600160a01b03821661290e576001600160a01b038316600090815260208190526040902080546001600160701b0316808a11156128f1578c604051631101335b60e11b81526004016106299181526040602082018190526017908201527f41413231206469646e2774207061792070726566756e64000000000000000000606082015260800190565b81546001600160701b031916908a90036001600160701b03161790555b5a85039650505050505094509492505050565b6001600160a01b038216600090815260016020908152604080832084821c80855292528220805484916001600160401b03831691908561296083613659565b909155501495945050505050565b825160608181015190916000918481116129ca5760405162461bcd60e51b815260206004820152601f60248201527f4141343120746f6f206c6974746c6520766572696669636174696f6e476173006044820152606401610629565b60a08201516001600160a01b038116600090815260208190526040902080548784039291906001600160701b031689811015612a52578c604051631101335b60e11b8152600401610629918152604060208201819052601e908201527f41413331207061796d6173746572206465706f73697420746f6f206c6f770000606082015260800190565b8981038260000160006101000a8154816001600160701b0302191690836001600160701b03160217905550826001600160a01b031663f465c77e858e8e602001518e6040518563ffffffff1660e01b8152600401612ab293929190613e2d565b60006040518083038160008887f193505050508015612af357506040513d6000823e601f3d908101601f19168201604052612af09190810190613e89565b60015b612b7d57612aff613c48565b806308c379a003612b305750612b13613c64565b80612b1e5750612b32565b8d81604051602001611bdb9190613f14565b505b8c604051631101335b60e11b8152600401610629918152604060208201819052601690820152754141333320726576657274656420286f72204f4f472960501b606082015260800190565b909e909d509b505050505050505050505050565b60008082600003612ba757506000928392509050565b6000612bb284612cb7565b9050806040015165ffffffffffff16421180612bd95750806020015165ffffffffffff1642105b905194909350915050565b6060813560208301356000612c04612bff6040870187613784565b613001565b90506000612c18612bff6060880188613784565b9050608086013560a087013560c088013560e08901356101008a01356000612c47612bff6101208e018e613784565b604080516001600160a01b039c909c1660208d01528b81019a909a5260608b019890985250608089019590955260a088019390935260c087019190915260e08601526101008501526101208401526101408084019190915281518084039091018152610160909201905292915050565b60408051606081018252600080825260208201819052918101919091528160a081901c65ffffffffffff8116600003612cf3575065ffffffffffff5b604080516060810182526001600160a01b03909316835260d09490941c602083015265ffffffffffff16928101929092525090565b6000818310612d375781612d39565b825b9392505050565b8015610cf6578251516001600160a01b0381163b15612dab5784604051631101335b60e11b8152600401610629918152604060208201819052601f908201527f414131302073656e64657220616c726561647920636f6e737472756374656400606082015260800190565b835160600151604051632b870d1b60e11b81526000916001600160a01b037f0000000000000000000000000000000000000000000000000000000000000000169163570e1a369190612e039088908890600401613a0b565b60206040518083038160008887f1158015612e22573d6000803e3d6000fd5b50505050506040513d601f19601f82011682018060405250810190612e479190613a1f565b90506001600160a01b038116612ea95785604051631101335b60e11b8152600401610629918152604060208201819052601b908201527f4141313320696e6974436f6465206661696c6564206f72204f4f470000000000606082015260800190565b816001600160a01b0316816001600160a01b031614612f135785604051631101335b60e11b815260040161062991815260406020808301829052908201527f4141313420696e6974436f6465206d7573742072657475726e2073656e646572606082015260800190565b806001600160a01b03163b600003612f765785604051631101335b60e11b815260040161062991815260406020808301829052908201527f4141313520696e6974436f6465206d757374206372656174652073656e646572606082015260800190565b6000612f8560148286886139ac565b612f8e916139d6565b60601c9050826001600160a01b031686602001517fd51a9c61267aa6196961883ecf5ff2da6619c37dac0fa92122513fb32c032d2d83896000015160a00151604051612ff09291906001600160a01b0392831681529116602082015260400190565b60405180910390a350505050505050565b6000604051828085833790209392505050565b6040518060a0016040528061307960405180610100016040528060006001600160a01b031681526020016000815260200160008152602001600081526020016000815260200160006001600160a01b0316815260200160008152602001600081525090565b8152602001600080191681526020016000815260200160008152602001600081525090565b6000602082840312156130b057600080fd5b813563ffffffff81168114612d3957600080fd5b80356001600160c01b03811681146130db57600080fd5b919050565b6000602082840312156130f257600080fd5b612d39826130c4565b6001600160a01b038116811461245557600080fd5b80356130db816130fb565b6000806040838503121561312e57600080fd5b8235613139816130fb565b9150613147602084016130c4565b90509250929050565b634e487b7160e01b600052604160045260246000fd5b60a081018181106001600160401b038211171561318557613185613150565b60405250565b61010081018181106001600160401b038211171561318557613185613150565b601f8201601f191681016001600160401b03811182821017156131d0576131d0613150565b6040525050565b60006001600160401b038211156131f0576131f0613150565b50601f01601f191660200190565b600081830361018081121561321257600080fd5b60405161321e81613166565b8092506101008083121561323157600080fd5b604051925061323f8361318b565b61324885613110565b83526020850135602084015260408501356040840152606085013560608401526080850135608084015261327e60a08601613110565b60a084015260c085013560c084015260e085013560e084015282825280850135602083015250610120840135604082015261014084013560608201526101608401356080820152505092915050565b60008083601f8401126132df57600080fd5b5081356001600160401b038111156132f657600080fd5b60208301915083602082850101111561330e57600080fd5b9250929050565b6000806000806101c0858703121561332c57600080fd5b84356001600160401b038082111561334357600080fd5b818701915087601f83011261335757600080fd5b8135613362816131d7565b60405161336f82826131ab565b8281528a602084870101111561338457600080fd5b826020860160208301376000602084830101528098505050506133aa88602089016131fe565b94506101a08701359150808211156133c157600080fd5b506133ce878288016132cd565b95989497509550505050565b60008083601f8401126133ec57600080fd5b5081356001600160401b0381111561340357600080fd5b6020830191508360208260051b850101111561330e57600080fd5b60008060006040848603121561343357600080fd5b83356001600160401b0381111561344957600080fd5b613455868287016133da565b9094509250506020840135613469816130fb565b809150509250925092565b6000806040838503121561348757600080fd5b8235613492816130fb565b946020939093013593505050565b6000602082840312156134b257600080fd5b8135612d39816130fb565b6000806000806000606086880312156134d557600080fd5b85356001600160401b03808211156134ec57600080fd5b6134f889838a016132cd565b90975095506020880135915061350d826130fb565b9093506040870135908082111561352357600080fd5b50613530888289016132cd565b969995985093965092949392505050565b6000806020838503121561355457600080fd5b82356001600160401b0381111561356a57600080fd5b613576858286016132cd565b90969095509350505050565b6000610160828403121561359557600080fd5b50919050565b6000602082840312156135ad57600080fd5b81356001600160401b038111156135c357600080fd5b61259b84828501613582565b600080600080606085870312156135e557600080fd5b84356001600160401b03808211156135fc57600080fd5b61360888838901613582565b95506020870135915061361a826130fb565b909350604086013590808211156133c157600080fd5b634e487b7160e01b600052601160045260246000fd5b80820180821115610d3c57610d3c613630565b60006001820161366b5761366b613630565b5060010190565b60005b8381101561368d578181015183820152602001613675565b50506000910152565b600081518084526136ae816020860160208601613672565b601f01601f19169290920160200192915050565b82815260406020820152600061259b6040830184613696565b634e487b7160e01b600052603260045260246000fd5b6000823561015e1983360301811261370857600080fd5b9190910192915050565b81810381811115610d3c57610d3c613630565b60008235605e1983360301811261370857600080fd5b6000808335601e1984360301811261375257600080fd5b8301803591506001600160401b0382111561376c57600080fd5b6020019150600581901b360382131561330e57600080fd5b6000808335601e1984360301811261379b57600080fd5b8301803591506001600160401b038211156137b557600080fd5b60200191503681900382131561330e57600080fd5b6000808335601e198436030181126137e157600080fd5b83016020810192503590506001600160401b0381111561380057600080fd5b80360382131561330e57600080fd5b81835281816020850137506000828201602090810191909152601f909101601f19169091010190565b60006101606138578461384a85613110565b6001600160a01b03169052565b6020830135602085015261386e60408401846137ca565b826040870152613881838701828461380f565b9250505061389260608401846137ca565b85830360608701526138a583828461380f565b925050506080830135608085015260a083013560a085015260c083013560c085015260e083013560e08501526101008084013581860152506101206138ec818501856137ca565b868403838801526138fe84828461380f565b9350505050610140613912818501856137ca565b8684038388015261392484828461380f565b979650505050505050565b6040808252810184905260006060600586901b830181019083018783805b8981101561399557868503605f190184528235368c900361015e19018112613973578283fd5b61397f868d8301613838565b955050602093840193929092019160010161394d565b50505050828103602084015261392481858761380f565b600080858511156139bc57600080fd5b838611156139c957600080fd5b5050820193919092039150565b6bffffffffffffffffffffffff198135818116916014851015613a035780818660140360031b1b83161692505b505092915050565b60208152600061259b60208301848661380f565b600060208284031215613a3157600080fd5b8151612d39816130fb565b65ffffffffffff818116838216019080821115613a5b57613a5b613630565b5092915050565b8183823760009101908152919050565b868152856020820152600065ffffffffffff8087166040840152808616606084015250831515608083015260c060a0830152613ab160c0830184613696565b98975050505050505050565b80518252602081015160208301526040810151151560408301526000606082015165ffffffffffff8082166060860152806080850151166080860152505060a082015160c060a085015261259b60c0850182613696565b6000610140808352613b2881840189613abd565b915050613b42602083018780518252602090810151910152565b845160608301526020948501516080830152835160a08301529284015160c082015281516001600160a01b031660e0820152908301518051610100830152909201516101209092019190915292915050565b60e081526000613ba760e0830187613abd565b9050613bc0602083018680518252602090810151910152565b8351606083015260208401516080830152825160a0830152602083015160c083015295945050505050565b634e487b7160e01b600052602160045260246000fd5b600060038510613c2157634e487b7160e01b600052602160045260246000fd5b84825260606020830152613c386060830185613696565b9050826040830152949350505050565b600060033d1115613c615760046000803e5060005160e01c5b90565b600060443d1015613c725790565b6040516003193d81016004833e81513d6001600160401b038160248401118184111715613ca157505050505090565b8285019150815181811115613cb95750505050505090565b843d8701016020828501011115613cd35750505050505090565b613ce2602082860101876131ab565b509095945050505050565b75020a09a98103837b9ba27b8103932bb32b93a32b21d160551b815260008251613d1e816016850160208701613672565b9190910160160192915050565b60006101c0808352613d40818401878961380f565b9050845160018060a01b03808251166020860152602082015160408601526040820151606086015260608201516080860152608082015160a08601528060a08301511660c08601525060c081015160e085015260e08101516101008501525060208501516101208401526040850151610140840152606085015161016084015260808501516101808401528281036101a08401526139248185613696565b600060208284031215613df057600080fd5b5051919050565b606081526000613e0b60608301878961380f565b6001600160a01b03861660208401528281036040840152613ab181858761380f565b606081526000613e406060830186613838565b60208301949094525060400152919050565b6e020a09919903932bb32b93a32b21d1608d1b815260008251613e7c81600f850160208701613672565b91909101600f0192915050565b60008060408385031215613e9c57600080fd5b82516001600160401b03811115613eb257600080fd5b8301601f81018513613ec357600080fd5b8051613ece816131d7565b604051613edb82826131ab565b828152876020848601011115613ef057600080fd5b613f01836020830160208701613672565b6020969096015195979596505050505050565b6e020a09999903932bb32b93a32b21d1608d1b815260008251613e7c81600f85016020870161367256fea264697066735822122039644caf1ea8f2154c8aba64c0c1d2e6d96ee012a05f2403e0d627539fbdba7a64736f6c63430008170033608060405234801561001057600080fd5b506101f3806100206000396000f3fe608060405234801561001057600080fd5b506004361061002b5760003560e01c8063570e1a3614610030575b600080fd5b61004361003e3660046100ec565b61005f565b6040516001600160a01b03909116815260200160405180910390f35b60008061006f601482858761015e565b61007891610188565b60601c9050600061008c846014818861015e565b8080601f016020809104026020016040519081016040528093929190818152602001838380828437600092018290525084519495509360209350849250905082850182875af190506000519350806100e357600093505b50505092915050565b600080602083850312156100ff57600080fd5b823567ffffffffffffffff8082111561011757600080fd5b818501915085601f83011261012b57600080fd5b81358181111561013a57600080fd5b86602082850101111561014c57600080fd5b60209290920196919550909350505050565b6000808585111561016e57600080fd5b8386111561017b57600080fd5b5050820193919092039150565b6bffffffffffffffffffffffff1981358181169160148510156101b55780818660140360031b1b83161692505b50509291505056fea2646970667358221220a0620436bf3124257a2d11235abd6b3a42d5c657d3fcd6a0cb22872740bfa69f64736f6c63430008170033","linkReferences":{}},"methodIdentifiers":{"SIG_VALIDATION_FAILED()":"8f41ec5a","_validateSenderAndPaymaster(bytes,address,bytes)":"957122ab","addStake(uint32)":"0396cb60","balanceOf(address)":"70a08231","depositTo(address)":"b760faf9","deposits(address)":"fc7e286d","getDepositInfo(address)":"5287ce12","getNonce(address,uint192)":"35567e1a","getSenderAddress(bytes)":"9b249f69","getUserOpHash((address,uint256,bytes,bytes,uint256,uint256,uint256,uint256,uint256,bytes,bytes))":"a6193531","handleAggregatedOps(((address,uint256,bytes,bytes,uint256,uint256,uint256,uint256,uint256,bytes,bytes)[],address,bytes)[],address)":"4b1d7cf5","handleOps((address,uint256,bytes,bytes,uint256,uint256,uint256,uint256,uint256,bytes,bytes)[],address)":"1fad948c","incrementNonce(uint192)":"0bd28e3b","innerHandleOp(bytes,((address,uint256,uint256,uint256,uint256,address,uint256,uint256),bytes32,uint256,uint256,uint256),bytes)":"1d732756","nonceSequenceNumber(address,uint192)":"1b2e01b8","simulateHandleOp((address,uint256,bytes,bytes,uint256,uint256,uint256,uint256,uint256,bytes,bytes),address,bytes)":"d6383f94","simulateValidation((address,uint256,bytes,bytes,uint256,uint256,uint256,uint256,uint256,bytes,bytes))":"ee219423","unlockStake()":"bb9fe6bf","withdrawStake(address)":"c23a5cea","withdrawTo(address,uint256)":"205c2878"},"id":24}